:020000040800F2
:10000000200D00206D020008CB320008452E0008AC
:10001000C93200082511000821370008000000003F
:10002000000000000000000000000000DB320008BB
:100030003511000800000000D932000885020008D0
:10004000870200088702000887020008870200086C
:10005000870200088702000887020008870200085C
:10006000870200088702000887020008870200084C
:10007000870200088702000887020008870200083C
:10008000870200088702000887020008870200082C
:10009000870200088702000887020008870200081C
:1000A000870200088702000887020008870200080C
:1000B00087020008870200088702000887020008FC
:1000C00087020008870200088702000887020008EC
:1000D00087020008870200088702000887020008DC
:1000E00087020008870200088702000887020008CC
:1000F00087020008870200088702000887020008BC
:1001000087020008870200088702000887020008AB
:100110008702000887020008F932000887020008F9
:10012000870200088702000887020008870200088B
:10013000870200088702000887020008870200087B
:10014000870200088702000887020008870200086B
:10015000870200088702000887020008870200085B
:10016000870200088702000887020008870200084B
:1001700087020008CD320008870200080000000056
:10018000870200088702000887020008870200082B
:10019000870200088702000887020008870200081B
:1001A000492E0008870200082911000800F002F813
:1001B00000F04CF80AA090E8000C82448344AAF1B5
:1001C0000107DA4501D100F041F8AFF2090EBAE8B3
:1001D0000F0013F0010F18BFFB1A43F0010318477B
:1001E000B4410000D4410000103A24BF78C878C15F
:1001F000FAD8520724BF30C830C144BF04680C602D
:10020000704700000023002400250026103A28BF74
:1002100078C1FBD8520728BF30C148BF0B60704778
:10022000642900F02581732900F0258200207047A1
:100230001FB504F097F89DE8030000F07BFD00F087
:100240004DFA1FBD10B500F0B2FA10BD00F015FB5D
:100250001146FFF7EDFF04F06AF800F033FD03B438
:10026000FFF7F0FF03BC00F03DFD000009488047A8
:1002700009480047FEE7FEE7FEE7FEE7FEE7FEE788
:10028000FEE7FEE7FEE7FEE704480549054A064BA0
:1002900070470000DD320008AD0100082007002093
:1002A000200D0020200900202009002053EA020C24
:1002B00000F069802DE9F04B4FF00006002B1FBFC6
:1002C000B3FA83F503FA05F424FA05F65E4012BF8B
:1002D0001643B2FA82F502FA05F4C5F120051EBFF5
:1002E00022FA05FC44EA0C04203556EA044C4FEA95
:1002F000144418BF641C4FF000084FF000099042EE
:1003000071EB030C39D3002919BFB1FA81F701FA57
:1003100007F6B0FA80F700FA07F6C7F120071EBF0C
:1003200020FA07FC46EA0C062037B6FBF4FCA7EBE4
:100330000507103F07F01F0BCBF120060CFA0BFB53
:100340002CFA06F644BFB3460026202FA4BF5E4613
:100350004FF0000B5BEA060C08BF4FF0010B19EBE6
:100360000B09ABFB027C48EB0608C01B06FB02CC6A
:100370000BFB03CC71EB0C01C1E70B460246414677
:100380004846BDE8F08B13B54FF000004FF0000178
:10039000AFF30080BDE81C40704700000FB4044973
:1003A00010B503AA029800F06BF910BC5DF814FBBD
:1003B000140600202DE9F0410E460446002020627C
:1003C0002046E168884730B3252805D0D4E90121CB
:1003D0009047206A401CF2E7E168204600278847E2
:1003E000050018D0A5F14100192802D820354FF496
:1003F00000673246294620462760FFF711FF40B1CB
:10040000012804D0F61D26F007060836D8E7361D69
:10041000D6E72846DAE7206ABDE8F08170B50C46D9
:100420000546012A05D02878800600D5EA69002310
:1004300002E0012305E05B1C934202D2E05C00284D
:10044000F9D1A869E618C01AA861286A1844286278
:100450002846AFF3008004E0D5E9012114F8010B30
:100460009047B442F8D32846AFF3008070BD000037
:100470002DE9F0410646002410687529314616A57D
:1004800010D0AFF30080002802DA404213A507E045
:1004900031688A0701D512A502E0490704D511A5E4
:1004A000012401E0AFF3008000210A2206F12407B5
:1004B00009E0B0FBF2FCB0FBF2F302FB1C003030B1
:1004C00078541846491C0028F3D123462A46304662
:1004D000BDE8F04100F064B8000000002D0000000D
:1004E0002B0000002000000010B5203AC0F00B8067
:1004F000B1E81850203AA0E81850B1E81850A0E828
:100500001850BFF4F5AF5FEA027C24BFB1E8185081
:10051000A0E8185044BF18C918C0BDE810405FEAF1
:10052000827C24BF51F8043B40F8043B08BF70476D
:10053000D20728BF31F8023B48BF11F8012B28BF72
:1005400020F8023B48BF00F8012B70474FF0000233
:1005500000B5134694469646203922BFA0E80C50B9
:10056000A0E80C50B1F12001BFF4F7AF090728BF94
:10057000A0E80C5048BF0CC05DF804EB890028BF10
:1005800040F8042B08BF704748BF20F8022B11F039
:10059000804F18BF00F8012B7047704770477047B5
:1005A0002DE9F0470D4699469246044600F124088D
:1005B0000168880604D5E06921F01001216000E09F
:1005C0000120A84201DD471B00E00027A1697A193C
:1005D00002EB0900081AA0612078C00602D4204668
:1005E000AFF30080002608E0D4E901211AF80600E4
:1005F0009047206A401C761C20624E45F4DB207830
:10060000C0060AD52046AFF3008006E0D4E90121F8
:1006100030209047206A401C2062381EA7F1010755
:10062000F4DC07E0D4E9012118F805009047206ABE
:10063000401C2062281EA5F10105F3DC2046AFF323
:1006400000802078000602D50220BDE8F087012056
:10065000FBE710B5436913B1AFF3008001E0FFF78A
:10066000DDFE012010BD127800F124010A70002285
:100670004A700122EDE711684FF0FF32E9E7000010
:10068000074B70B50D467B4400F011F80446284630
:1006900000F020F810B14FF0FF3070BD204670BD63
:1006A0008B3C000001694A1C02610878704700B564
:1006B0008FB0CDE901310021059105497944CDE99B
:1006C000031011466846FFF775FE0FB000BD00002D
:1006D000E5FFFFFF007B00F08000704710B5424847
:1006E0005421FFF733FF41485421FFF72FFF4048C3
:1006F0005421FFF72BFF3F493B483C4A3F4B0860E2
:100700003D490A603A491960531C0365481C10654D
:10071000012008653B48344A39A1784400F036FA94
:1007200020B9384878440A3800F0D5FA37482F4ABB
:1007300035A1784400F02AFA20B9344878440A38C0
:1007400000F0C9FA32482A4A2FA1784400F01EFA74
:1007500020B92F4878440A3800F0BDFA40232248D7
:10076000DC000021224600F0EEF920B12548784453
:10077000543800F0B0FA1D4822464023002100F012
:10078000E2F920B121487844543800F0A4FA18481E
:1007900022461023002100F0D6F9002806D01C487C
:1007A0007844BDE81040563800F095BA10BD1048A6
:1007B00070B5006D20F001040B4800F05DFA0B48A5
:1007C00000F05AFA0A4800F057FA09E0206D20F0CC
:1007D0000105204600F050FA204600F0A2F82C4611
:1007E000002CF3D170BD0000C005002014060020CD
:1007F00068060020280000202C0000203000002087
:1008000072000000683C000077000000543C0000CB
:10081000403C00000EB5CDE9000100F0D5FB029090
:1008200069460120ABBE0EBD08B5694600900220A6
:10083000ABBE08BD1FB58DE8070069460520ABBEFD
:1008400004B010BD1FB58DE80F0069460620ABBE91
:10085000F6E708B5694600900920ABBE08BD1CB597
:10086000CDE9000169460A20ABBE1CBD704708B542
:10087000694600900C20ABBE08BD754600F038FA02
:10088000AE4605006946534620F00700854618B07D
:1008900020B5FFF7F9FCBDE820404FF000064FF00F
:1008A00000074FF000084FF0000B21F00701AC46A5
:1008B000ACE8C009ACE8C009ACE8C009ACE8C009C4
:1008C0008D46704770B5064600F018FA056806F1C7
:1008D0000B0020F00704B4429CBF002070BD2B46E3
:1008E0006A68BAB11068A04210D304F108018842C6
:1008F0003CBF5068586007D35168101941601168B7
:10090000091B016058601460101D70BD13465268C9
:10091000002AE7D12146284600F0F8F90028DED168
:1009200070BD70B50446051F00F0E8F90068002CA2
:1009300014BF446870BD002C18BFAC423CBF2046B9
:100940006468F8D301680A18AA4218BF456003D149
:100950002A6805461144016028684119A1421CBF5C
:100960006C6070BD6168696021680844286070BD72
:100970002DE9F04705460C46C86820F4201040F4E5
:100980008000C860800602D5084600F0DCFAE06806
:1009900041F282014FF0FF390140022903D0204685
:1009A00000F07AFAB5E000F42041B1F5004F0FD124
:1009B000C00306D56168E06A884200D808466060D6
:1009C00006E02069E06260606069FFF750FFA061A7
:1009D000A0680022EEB200280DDAE1688B050AD487
:1009E000C043A06041F490302260E0606068411C28
:1009F00061600670A5E0E0689046226040F4005017
:100A0000E060206968BB6069FFF723FF012704F1FC
:100A10002405A0B1A08910F4407F08D0E069FFF759
:100A200051FF206118B1E06840F4006016E0E76112
:100A30002561E06820F4407040F480600EE0E069D9
:100A4000FFF740FF00282061F1D0E06840F400602B
:100A500010F4407FE06002D140F48070E0602069D3
:100A60006060E06825696FF0010AC1051FD5616803
:100A7000E06A884200D80846411B04D02246284636
:100A800000F014FAF0BBE068010203D5E562C4E9A6
:100A9000015854E0691CE1626160E16940F4803012
:100AA000491EC4E9021030462E70BDE8F0870102ED
:100AB00002D500F480320AE06068411C6160067073
:100AC000E0680A2E40F48030E06006D00022E16A3F
:100AD0006068814203D90B4602E00122F7E7034632
:100AE000A7895B1B7F0503D4E7699F4200DDE2B164
:100AF000814200D80146E5620F1AC4E90158002B73
:100B000009DD00E005E022461946284600F0CEF94E
:100B100008B14846C9E747B1A069E5626560C01BF6
:100B2000A061E06840F01000E060E068000208D5D5
:100B30006168A069E562491B08446560A061504690
:100B4000B3E73046B1E770B5C468A50713D06502B6
:100B500011D4B2F5807F09D0B2F5007F06D0B2F58E
:100B6000806F08D1012300F1240106E05D1E6FF0C3
:100B70007F46B54201D3012070BD0161C361416070
:100B800024F470611143C160002070BD2DE9F04173
:100B90000C4607461646104600F06EF82078611C99
:100BA00061280AD0722802D077283CD102E00125C2
:100BB000002405E00225042402E0082448F202058E
:100BC00011F8010B2B2806D0622809D011F8010C6E
:100BD00074280AD00BE045F0030544F00204EFE767
:100BE00045F0040544F00104EAE744F010043846F7
:100BF0002146FFF70FFE411C15D0002131617160C5
:100C00004FF40071F560F1617061200704D5304642
:100C10000222002100F0C4F8306D40F00100306580
:100C20003046BDE8F0810020FBE72DE9F0410D469C
:100C30000646104C206DC10704D0410804D020F0B6
:100C40000104F7E722460EE05420FFF73BFE0700C1
:100C50000ED0206D47F0010108435421206538462D
:100C6000FFF774FC3A4629463046BDE8F0418DE76F
:100C70000020D6E7C00500202DE9F04704464FF0DC
:100C800000094FF0FF37C568D4E90486A80707D0EC
:100C9000204600F035F93046FFF7C6FD002802DA9D
:100CA0003846BDE8F087280502D54046FFF739FEF3
:100CB0004C212046FFF74AFC206D20F00100206502
:100CC0004846EEE710B50446AFF300802046BDE885
:100CD0001040FFF7C4BA10B500F05CF9BDE8104051
:100CE00000F052B901491820ABBEFEE72600020011
:100CF00000487047BC06002070470000004870475D
:100D0000C4060020704770477047704738B50446E6
:100D10000A4600206946AFF30080002808BF38BDAE
:100D200002460099204600F06EF9012038BD0120EE
:100D300000F0BDB9F8B5AFF30080054600200C46C1
:100D4000102000BF0646A819A0420DD932466946B8
:100D50000020AFF30080070008BF00F0A8F900985A
:100D6000A04218BF0546C419FFF7C8FF0560074633
:100D7000F01D20F007004619284600F00AF8B4429A
:100D800008BFF8BDA21B31463868BDE8F84000F046
:100D90003AB900210160C0E9011070471020704786
:100DA0002DE9F041044616460D464769007B800751
:100DB0002ED03846FFF74DFD50BB3EB3012E02D07A
:100DC000022E25D104E0204600F037F905441DE04D
:100DD0003846FFF74CFDE168002841F01001E16062
:100DE00005DA204600F058F80120BDE8F081C9037B
:100DF0000BD56268E16A914200D81146A26911449C
:100E00002269891A814200DD08460544002D01DA75
:100E10000220EAE7E16A6068E268814206D2910353
:100E2000E06203D522F4003141F01002A6690027E8
:100E3000AE4213DCE16A814201D90B4600E0034671
:100E400003EB060C2369ACEB030CAC4506DD8142D9
:100E500001D98C4600E084469C4505D1A7602760F7
:100E600042F02000A5620DE0AD1BE669AE1B814299
:100E7000A66000D90846C01A281A20605819606078
:100E800022F0200003490840E060002084F8487008
:100E9000ABE70000BFCFD7FFC16821F4001141F0DC
:100EA0008001C16000218160016070472DE9F04739
:100EB000814614460E464FF0FF383248D5685769D0
:100EC000054209D03846A169FFF7C9FC002811DBAB
:100ED0002C48C0430540E5602B463246494638461B
:100EE000FFF7A8FCA16920F00042B21A11440028C3
:100EF000A16103D02046FFF7CFFF4046BDE8F08751
:100F000070B504460569C06A6168884200D8084621
:100F1000E16821F42011E160C90312D5A84208D08C
:100F20002246411B2846FFF7C1FF10B14FF0FF30AA
:100F300070BD0020E562C4E90150E06820F4803013
:100F4000E060002070BD10B50446C06820F02000AD
:100F5000E060A16AA06988420DD02046FFF7D0FF6B
:100F6000E06820F4405040F01000E060A06AA0610A
:100F70002069E062606044F24001E0688843E0601C
:100F800010BD000010000200002801D0FFF7AABE2B
:100F90007047000010B5014602A000F06FF8012074
:100FA00010BD000053494752545245443A205265FF
:100FB0006469726563743A2063616E2774206F7090
:100FC000656E3A200000000010B5431C02E010F8E6
:100FD000011B71B18107FAD14FF0013202C88C1A9E
:100FE0008C4314EAC211F9D0C01A0A0603D0C01EFD
:100FF00010BDC01A10BD0A0401D0801E10BD090228
:10100000FCD0401E10BD034640688C46002818BF27
:1010100088423CBF03464068F8D3186818448842A9
:1010200007D00CF1030020F00700001D411A521AEE
:101030000146081D0A60FFF774BC10B50146C2687E
:10104000900703D0900607D5886A0AE000F03EF8C2
:1010500001210160881E10BD8B69486818440B6926
:10106000C01A91F848301BB191F84910401A10BDD0
:101070001103FCD50028FADD401E10BD70B50546F1
:101080000C460A2000E06D1C00F018F835B12878F5
:101090000028F8D102E0641C00F010F814B12078A8
:1010A0000028F8D1BDE870400A2000F007B810B55C
:1010B00000F010F8BDE81040FFF766BF08B56946BC
:1010C0008DF800000320ABBE08BD0000004870474B
:1010D000BC06002010B5012805D0002103A0FFF7B1
:1010E000CDFF012010BD09A1F8E700005349475288
:1010F000544D454D3A204F7574206F6620686561E8
:1011000070206D656D6F7279000000003A204865AF
:101110006170206D656D6F727920636F727275708A
:1011200074656400FEE70000014800F0E7B80000C5
:10113000740000207047704730B5D1E901231A438D
:10114000D1E903352B431A434B690C681A438B6969
:101150001A43D1E90735012C496A046807D01A43BC
:101160002A436FF30E040A43224302600AE024F488
:10117000F8442B4321430B43416803606FF30E0196
:101180000A434260002030BDF0B56FF00F05D1E991
:10119000003405EB04145B1E23432E018C682F03DF
:1011A00006EB042423434FEA054C0C8A8E8ACD6853
:1011B000097E4FF07F4E07EB04440CEB06560EEB16
:1011C0000161012A0CD082683F1107EB05352B43E2
:1011D0002343334302F070420B43134383600FE019
:1011E0008768084A17402A03A2F580523243C5682F
:1011F0003A43234305F070450B432B438260C360A1
:101200000020F0BDFF0F0FFF10B5040002D0607981
:1012100010B106E0012010BD00202071204600F032
:1012200005F801206071002010BD000008B50068BD
:101230000649884208D10648016841F4805101609E
:10124000006800F48050009008BD000000300240AB
:10125000303802407047000070B590F83820012AFD
:1012600024D0012680F83860022280F8392000EB73
:101270000112148CD369183243EA04451E4C0A2B20
:1012800016D0092B14D0137B45EA036300290168AB
:1012900013D0CD69A5431D43CD6103681168196161
:1012A00051680A291BD0092919D01DE0022070BD00
:1012B000D36803F07F432B43E8E74D6AA5431D4302
:1012C0004D6203681168996151680A2901D00929A2
:1012D0000AD1D168026821F07F41916204E0D168AF
:1012E000026821F07F41116280F83960002180F8A6
:1012F0003810084670BD00000F0003FF2DE9F047CD
:101300000446006846680568F1074FF004084FF08E
:1013100000074FF0010914D0E90512D5016821F446
:1013200080710160E06B40F00100E0632168C1F86A
:10133000089084F8398084F83870616909B12046D2
:101340008847B00615D5A80413D52068016821F494
:1013500000510160216820208860E06B40F00200AD
:10136000E06384F8398084F83870616909B12046F7
:101370008847300715D5280513D52068016821F462
:1013800000610160216808208860E06B40F0040083
:10139000E06384F8398084F83870616909B12046C7
:1013A000884770070CD568050AD52068016821F4C4
:1013B000806101602168C1F80880204600F05AF879
:1013C000B00713D5A80511D52068016821F4007174
:1013D0000160216802208860E06BE06384F8399046
:1013E00084F83870216909B120468847F00612D583
:1013F000E80410D52068016821F48051016021685B
:1014000010208860E06BE06384F8399084F83870CD
:101410002046FFF71FFFBDE8F08770B5040004D039
:1014200094F83900002510B106E0012070BD84F861
:101430003850204600F020F8022084F83900206857
:101440000168626821F44031114301602068416BFA
:10145000A26821F00701114341632068016CE26832
:101460006FF30D0111430164E563012084F8390035
:10147000002070BD7047000008B500680B49884225
:1014800012D10B48016841F400010160006800229C
:1014900000F40000009005215A2000F0CFFDBDE8C7
:1014A00008405A2000F0BCBD08BD000000B002405A
:1014B0003038024070B5044600F0FEF80546601C66
:1014C00002D004480078044400F0F6F8401BA04223
:1014D000FAD370BD180000202DE9F84F00224FF01C
:1014E000010803254FF00F0E0B6808FA02F42340A1
:1014F000A3426ED14E68012E05D0022E03D0112ECC
:1015000001D0122E12D186684FEA420C05FA0CF770
:10151000BE43CF6807FA0CF7374387604668A64397
:101520000C79C4F30014944034434460C6685700F7
:1015300005FA07FC8C6826EA0C06BC403443C460FC
:101540004C68022C01D0122C13D1D40800EB840477
:10155000A346D4F8209054074FEAD46A0EFA0AF64C
:1015600029EA06090E6906FA0AF646EA0906CBF8E0
:10157000206004680E7924EA0C0406F00306BE40DD
:10158000264306604C68E4006FD53B4C266846F461
:1015900080462660246822F0030604F48044009408
:1015A000364C3444A446D4F808489607360F0EFA51
:1015B00006F7BC43324FB84201D100272EE0314F2D
:1015C000B84201D1012729E02F4FB84202D10227AA
:1015D00024E04AE02D4FB84201D103271EE02C4FF2
:1015E000B84201D1042719E02A4FB84201D105279A
:1015F00014E0294FB84201D106270FE0274FB84227
:1016000001D107270AE0264FB84201D1082705E09B
:10161000244FB84201D1092700E00A27B7402743E9
:10162000CCF80878204E34684F689C43FF0300D5FF
:101630001C4334601C4E361D34684F689C43BF0306
:1016400000D51C433460184E083634684F689C43FC
:10165000FF0200D51C433460134E0C3634684F68CB
:101660009C43BF0200D51C433460521C102AFFF477
:101670003BAFBDE8F88F0000443802400030014025
:10168000000002400004024000080240000C02403A
:10169000001002400014024000180240001C0240EA
:1016A0000020024000240240003C01400AB1816158
:1016B00070470904FBE7000001488068704700009C
:1016C0001800002070477047704700002DE9F04176
:1016D00004460068064601F009FF01287ED1206813
:1016E00001F0F5FF002879D0206801F0F0FF8002BA
:1016F00003D521684FF400104861206801F0E7FF2E
:10170000C00203D521684FF480104861206801F0C1
:10171000DEFF400103D521684FF0806048612068FA
:1017200001F0D5FF800702D52168022048612068BA
:1017300001F0CDFF80000ED521684FF000504861C8
:10174000D6F84004C00706D12046FFF7BCFF0121B0
:10175000206801F0A1FF206801F0B9FFC00102D5A7
:10176000204602F077F9206801F0B1FF000705D5A7
:10177000204600F0C3F8216808204861206801F085
:10178000A6FF800123D5206801F015FF074600253C
:101790004FF0010814E000BF05F00F0108FA01F056
:1017A00038420CD006EB4510D0F80005E9B2000431
:1017B000204602D502F098F901E002F0D1FA6D1C42
:1017C000A068A842E8D821684FF0007048612068FE
:1017D00001F07DFFC043C0060ED400E00CE020689D
:1017E000816921F010018161204602F0DBFB206855
:1017F000816941F010018161BDE8F08170B58AB066
:10180000040005D094F8B9022568002618B107E055
:1018100001200AB070BD84F8B862204600F028F8B4
:10182000032084F8B902E86BC00500D42661206863
:1018300001F01EFE04F1100128220D466846FEF755
:1018400053FE94E80F0001F0D9FD0121206801F05A
:1018500050FF282229466846FEF746FE94E80F000E
:1018600001F0AEFE012084F8B9020020D1E70000AB
:1018700070B586B0044614216846FEF767FE1B4922
:101880002068884230D11A4C0025206840F00200C0
:1018900020602068174E00F0020005904FF4504081
:1018A00000900220CDE901050C20CDE903506946E6
:1018B0003046FFF711FE4FF40050CDE900056946B0
:1018C00030460295FFF708FE206840F00050206087
:1018D0002068002200F00050059011464D2000F0D5
:1018E000ADFB4D2000F09CFB06B070BD0000044035
:1018F000303802400004024070477047704790F84B
:101900003D20202A01D002207047242280F83D206B
:101910000268136823F0010313600268536A23F01E
:10192000100353620268536A0B43536201680A68EA
:1019300042F001020A60202180F83D10002070472B
:1019400090F83D20202A01D002207047242280F800
:101950003D200268136823F00103136003685A6A8C
:1019600022F00F020A4391B2596201680A6842F0FC
:1019700001020A60202180F83D100020704700001D
:1019800070B5040025D094F83D00002520B984F8F6
:101990003C50204600F0B8F8242084F83D00206830
:1019A000016821F0010101602068016841F40041F3
:1019B00001602068016821F40041016000F054FDDD
:1019C0004D4A6168914201D84C4900E04C49884237
:1019D00001D2012070BD4B492368B0FBF1F15E6874
:1019E00026F03F060E435E606368934206D94FF4CB
:1019F000967359434FF47A73B1FBF3F12368491C92
:101A00001E6A26F03F06314319626168914210D880
:101A10004900401EB0FBF1F2521CC2F30B02042A33
:101A200001D2042022E0B0FBF1F0401CC0F30B0017
:101A30001CE0A268F2B301EBC10303EB0116431EE5
:101A4000B3FBF6F35B1C43F480431B0549D092B310
:101A500001EBC10202EB0111401EB0FBF1F0401C92
:101A6000C0F30B0040F4804040F400402168CA6994
:101A70004CF6FF739A431043C861D4E90710014341
:101A80002068026822F0C00211430160D4E903011A
:101A900001432068826848F2FF339A431143816012
:101AA000D4E9050108432168CA6822F0FF02104307
:101AB000C86001E00EE016E02068016841F0010115
:101AC00001602564202084F83D00256384F83E50A1
:101AD000002070BD01EB4106431EB3FBF6F35B1C17
:101AE000B3E70120C2E701EB4101401EB0FBF1F07A
:101AF000401CC0F30B00B7E7A086010080841E00E5
:101B000000093D0040420F00F0B587B004461421A3
:101B10006846FEF71BFD1C492068884231D11B48EE
:101B20000024016841F004010160016801F0040132
:101B30000591016841F0010101600068122500F083
:101B4000010005904FF4007001268DE86100042724
:101B5000CDE9034769460E48FFF7BEFC30028DE829
:101B60006100CDE9034769460A48FFF7B5FC07481D
:101B70001030016841F400010160006800F40000C9
:101B8000059007B0F0BD0000005C00403038024016
:101B900000080240000002400248816802781144B7
:101BA00081607047180000200B4810B5016841F4AF
:101BB00000710160016841F480610160016841F4D5
:101BC00080710160032000F059FA002000F006F84F
:101BD00000F00EFA002010BD003C024010B5014696
:101BE00088B00022362000F029FA362000F018FADA
:101BF00013480024016841F010010160006805A944
:101C000000F010000690684600F00EFC00F02CFC7E
:101C10000C494000B0FBF1F10C480B4A491E026030
:101C200040F2E732C0E90324C0E9011400F0FCFEF1
:101C300010B1012008B010BD044800F025FFF9E7FD
:101C40004038024040420F00001000408005002054
:101C50002DE9F041044690F8A00016460F460128F1
:101C60001DD0012584F8A050022084F8A10006EBC5
:101C7000860000EBC60004EB800034223830FEF70B
:101C800033FC32463946204602F0EFF920684562BF
:101C900084F8A150002084F8A000BDE8F081022063
:101CA000FBE770472DE9F04104460068856B466B01
:101CB00069074FF004084FF0000715D5710713D5D9
:101CC000416B21F0040141632168C1F83C80D4F8E4
:101CD000A41041F00101C4F8A41084F8A18084F894
:101CE000A0702046FFF7DDFFA80716D5B00714D572
:101CF0002068416B21F00201416321680220C86322
:101D0000D4F8A40040F00200C4F8A40084F8A18034
:101D100084F8A0702046FFF7C4FF05EA0600C0075C
:101D20004FF001080ED02068416B21F001014163A2
:101D30002168C1F83C8084F8A18084F8A070204616
:101D400000F090F8280710D530070ED52068416BB9
:101D500021F00801416321680820C86384F8A1804C
:101D600084F8A070204600F041F9BDE8F081000041
:101D700070B5040004D094F8A100002510B106E06D
:101D8000012070BD84F8A050204600F06DF80220BC
:101D900084F8A1002068816921F070418161D4E953
:101DA00001010843D4E903121143084321688A69F9
:101DB0001043886121688A68294802408A60A18AA4
:101DC0000A0421688B68A669334313438B6021683A
:101DD000CA680240CA60A18B0B042168CA68266ADF
:101DE00032431A43CA6021680A6902400A61A18C21
:101DF00022680B041169A66A3143194311612168F5
:101E00004A6902404A61A08D010420684269236B3F
:101E10001A430A43426194F835002168020294F89B
:101E20003600CB6A03F07F43CB622168CB6A94F81B
:101E3000346042EA004033430343CB622068416B85
:101E400041F0060141632068816941F0010181612F
:101E5000C4F8A450012084F8A100002070BD000047
:101E600000F800F0704700002DE9F04186B004460C
:101E700014216846FEF76AFB5449206888427CD1E9
:101E800053480024016841F080610160006800F05F
:101E9000806005904E481438016841F020010160CF
:101EA000016801F020010591016841F00101016024
:101EB000016801F001010591016841F00201016032
:101EC000016801F002010591016841F040010160E3
:101ED000016801F040010591016841F004010160D1
:101EE000016801F004010591016841F008010160F9
:101EF0000068022500F0080005904FF48060009013
:101F0000CDE901540E26CDE9034669463148FFF775
:101F1000E3FA41F658000090CDE90154CDE90346BB
:101F200069462D48FFF7D8FA03200090CDE9015407
:101F30000927DFF8A880CDE9034769464046FFF747
:101F4000CBFA4FF470600090CDE90154CDE903461F
:101F500069464046FFF7C0FA4FF40C600090CDE9A7
:101F60000154DFF87C80CDE9034669464046FFF71F
:101F7000B3FA4FF49860009000E024E0CDE90154FA
:101F8000CDE9034669461748FFF7A6FA48200090B6
:101F9000CDE90154CDE9034669461348FFF79CFAA1
:101FA0004FF4A0500090CDE90154CDE903476946B4
:101FB0004046FFF791FA00220521582000F03EF834
:101FC000582000F02DF806B0BDE8F081006801400F
:101FD0004438024000140240000002400004024065
:101FE0000018024000080240000C02407047000048
:101FF0000A4808B5016841F480410160006800F4B6
:10200000804000900548001F016841F08051016048
:10201000006800F08050009008BD00004438024085
:10202000002809DB00F01F020121914040098000D7
:1020300000F1E020C0F8001170470000F0B40E4B32
:102040001B680C46C3F30223C3F10705042D00D916
:102050000425191D072901D2002300E0DB1E0126FB
:1020600006FA05F1491E214099409E40761E164011
:102070003143F0BC02F03EB90CED00E0064900F03F
:10208000070208684FF6FF03184040EA0220034A9F
:1020900010430860704700000CED00E00000FA05F6
:1020A0002DE9F84F04460068DFF824A2894F8A4DD5
:1020B000C1074FF001084FF0000603D1810701D49A
:1020C000400648D5CAF86860FFF7F6FA814605E091
:1020D000FFF7F2FAA0EB090002287DD8286800017A
:1020E000F6D42078C1077D4805D06168227A89013D
:1020F00041EA027101602178890711D5016862689F
:10210000237B9201C1F3027142EA036242EA017148
:1021100001603968E26921F01F01521E11433960E4
:102120002178490608D56168227B890141EA02616C
:10213000227A41EA02710160CAF86880FFF7BCFAAE
:10214000814605E0FFF7B8FAA0EB0900022843D862
:1021500028680001F6D52068410701D400074ED554
:10216000CAF87060FFF7A8FA814605E0FFF7A4FA05
:10217000A0EB090002282FD82868C0438000F5D5BD
:1021800020784107564814D501682269237D9201C1
:10219000C1F3027142EA036242EA017101603968E7
:1021A000226A6FF0FF0321F4F85103EB022211437E
:1021B00039602178090712D501682269C1F30361EA
:1021C000920142EA0161227E41EA027101603868AF
:1021D000616A20F4403000E051E008433860CAF8FA
:1021E0007080FFF769FA074605E000BFFFF764FA61
:1021F000C01B022843D82868C0438000F6D420784A
:10220000800653D534484030016841F08051016068
:102210000068344D00F080500090286840F48070D1
:102220002860FFF749FA074605E000BFFFF744FAC8
:10223000C01B022823D82868C005F7D5274D143DB8
:10224000286810F4407020D0218D01F44071814243
:102250001BD0286820F440712348C0F80080066035
:1022600029602868C00710D0FFF726FA064641F219
:10227000883707E0FFF720FA801BB84202D9032015
:10228000BDE8F88F28688007F4D5A16A1248C1F329
:1022900001220830032A13D0016821F4F8110160EB
:1022A0002868218DC1F30B01084328602078C006FF
:1022B00004D50E4994F82C00C1F8E0010020DFE7B6
:1022C00002680B4B22F4F81219400A430260E7E758
:1022D000000047428C3802400038024084380240F7
:1022E0008838024000700040400E474200104742CC
:1022F000FFFCFF0F2DE9F0470E46050065D0DFF823
:102300001481D8F80000F7B200F00F00B04207D2F5
:1023100088F80070D8F8000000F00F00B04254D1E7
:1023200028683D4C810712D5400703D5206840F44A
:10233000E05020602878000703D5206840F4604012
:1023400020602068A96820F0F00008432060287809
:10235000C0072DD0304968680839012812D00228FA
:1023600013D0032811D00968890700292DDA2168C4
:1023700021F0030101432160FFF79EF9814641F2FC
:10238000883A0EE009688903EFE709688901ECE7FC
:10239000FFF792F9A0EB0901514502D90320BDE8EE
:1023A000F0872068696800F00C00B0EB810FEFD176
:1023B000D8F80010404601F00F01B14207D907706C
:1023C000006800F00F00B04201D00120E7E7287854
:1023D000400705D52068E96820F4E05008432060F4
:1023E0002878000706D52068296920F4604040EA73
:1023F000C100206000F058F82168084AC1F30311B9
:10240000515CC8400649086006480068FFF7E6FBD3
:102410000020C4E7003C0240083802406E43000838
:10242000240000201C0000200F2202600C4A1368C8
:1024300003F003034360136803F0F0038360136841
:1024400003F4E053C36012684FF4E05303EAD2028E
:1024500002610448006800F00F0008607047000047
:1024600008380240003C02400448054900680968F9
:10247000044AC1F38221515CC84070472400002007
:10248000083802407E43000804480549006809688E
:10249000044AC1F34231515CC84070472400002017
:1024A000083802407E430008154810B5006810F057
:1024B0000C02144813D04110042A0FD0082A0ED160
:1024C0000F4C241F2268236802F03F025B0207D5ED
:1024D0002068C0F38810A0FB010106E0084610BD8B
:1024E0002168C1F38811A1FB00010023FDF7DEFE86
:1024F0002168C1F30141491C4900B0FBF1F010BD56
:10250000083802400024F4002DE9F84F04006ED092
:102510002078DFF83C93C007A9F104054AD009F1FF
:1025200004000168C1F38101012908D00068C0F3EB
:10253000810002280AD1D9F80000400206D5286897
:10254000800337D560680028E1D033E06068B0F5DB
:10255000803F10D0B0F5A02F286810D020F4803034
:102560002860286820F4802028606068A8B1FFF700
:10257000A3F806460DE0286840F48030F4E740F404
:1025800080202860F7E700BFFFF796F8801B6428DB
:1025900073D828688003F7D50CE0FFF78DF806465E
:1025A00005E000BFFFF788F8801B6428F0D8286892
:1025B0008003F7D42078DFF89C8280074FF0000A70
:1025C0003ED5A348001D016811F00C0F08D000682B
:1025D000C0F3810002280BD1D9F80000400207D4D3
:1025E0002868800716D5E068012800D112E02BE1A9
:1025F000E068B8B10120C8F80000FFF75DF80646B2
:1026000005E000BFFFF758F8801B0228C0D82868F3
:102610008007F7D52868216920F0F80040EAC1005A
:1026200028600DE0C8F800A0FFF746F8064604E071
:10263000FFF742F8801B02281FD828688007F7D4CC
:102640002078000722D5824E83486169703671B1C7
:1026500001210160FFF730F8074604E0FFF72CF88E
:10266000C01B022809D830688007F7D50EE0C0F8F3
:1026700000A0FFF721F8074605E082E0FFF71CF80D
:10268000C01B02287DD830688007F7D42078400727
:1026900068D5DFF8BCB100270BF13C0BDBF800007C
:1026A000C0000BD4DBF8001041F08051CBF80010D3
:1026B000DBF80000012700F080500090674E306882
:1026C000C00510D4306840F480703060FEF7F4FF2D
:1026D000009005E0FEF7F0FF0099401A022850D85C
:1026E0003068C005F6D55A4EA0686C3601280FD068
:1026F0000528306810D020F001003060306820F0EC
:1027000004003060A068B8B1FEF7D6FF00900FE07B
:10271000306840F00100F4E740F004003060F7E773
:10272000FEF7CAFF0099411A41F28830814266D80B
:1027300030688007F4D50EE0FEF7BEFF009007E09A
:10274000FEF7BAFF0099411A41F28830814256D80B
:1027500030688007F4D42FB1DBF8001021F08051ED
:10276000CBF80010A069C8B33949091D0968C1F345
:10277000810102294AD00228504607D0C8F86000DB
:1027800000E03CE0FEF798FF04463BE04746C8F80F
:102790006000FEF791FF064605E000BFFEF78CFFE4
:1027A000801B02282BD828688001F7D4D4E90701C0
:1027B0000843A16A2A4A490802EB0141626A41EAD8
:1027C0008211084394F82C1040EA0161C9F8001006
:1027D00001203866FEF770FF044606E036E000BFD1
:1027E000FEF76AFF001B022809D828688001F7D588
:1027F0002CE000BFFEF760FF001B022802D9032077
:10280000BDE8F88F28688001F4D41FE00128F7D0D4
:10281000D9F80000E26900F48001914214D1226AE3
:1028200000F03F0191420FD147F6C071626A01404A
:10283000914209D1A26A00F44031914204D1E16A87
:1028400000F07060884201D00120D9E70020D7E76E
:102850000438024000004742800E474200700040AA
:102860000000FFFF70B50D46040003D094F82C0063
:1028700010B107E0012070BD002084F82D00204633
:1028800000F011F8022084F82C00211D2068FEF7CA
:1028900053FCD4E900022946FEF776FC012084F8B7
:1028A0002C00002070BD01F04BB870B5040005D0BD
:1028B0000025A56294F8510010B106E0012070BD1A
:1028C00084F85050204600F031F8022084F851007E
:1028D0002068016821F040010160D4E9010108434A
:1028E000D4E903121143084361690843218B01F4C1
:1028F00000710843E1690843216A0843A16A08435B
:1029000021680860A069042101EA1040616A084357
:10291000216848602068C16921F40061C161656572
:10292000012084F85100002070BD000010B586B071
:10293000044614216846FDF709FE134920688842C1
:1029400020D112480021026842F48012026000681F
:1029500000F4801005900D481438026842F02002FF
:102960000260006800F0200005904FF46070009055
:102970000220CDE901010520CDE903106946044894
:10298000FEF7AAFD06B010BD0050014044380240D9
:10299000001402407047704770B590F83C20012A3F
:1029A00032D0012480F83C40022280F83D200368A8
:1029B0005A689D6822F070060A6832435A60134BC9
:1029C00002689A4214D0B2F1804F11D0104B9A4253
:1029D0000ED0104B9A420BD00F4B9A4208D00F4B9F
:1029E0009A4205D00E4B9A4202D00E4B9A4204D125
:1029F000496825F080031943916080F83D4000212B
:102A000080F83C10084670BD022070BD00000140F7
:102A10000004004000080040000C00400004014099
:102A2000004001400018004010B5040003D094F8A5
:102A30003D0010B107E0012010BD002084F83C00EB
:102A4000204600F00DF8022084F83D00211D20688A
:102A500000F058FC012084F83D00002010BD00006B
:102A600008B500680649884208D10648016841F067
:102A700001010160006800F00100009008BD000045
:102A800000000140443802400168CA6842F0010277
:102A9000CA600068816801F00701062903D0016857
:102AA00041F0010101600020704770B5044690F8C4
:102AB0003C00012817D0012584F83C50022084F8FE
:102AC0003D002068826822F0770222F47F42826013
:102AD0000868502830D00DDC20284DD005DC98B394
:102AE00010283BD148E0022070BD302844D0402857
:102AF00034D139E0602828D0702806D0B0F5805F46
:102B00002CD0B0F5005F29D10AE0CB68D1E90121D2
:102B1000206800F068FC2068816841F0770109E0D6
:102B2000CB68D1E90121206800F05DFC2068816854
:102B300041F48041816011E0CA684968206801F071
:102B400071FA5021206807E016E0CA6849682068D9
:102B500001F079FA6021206801F05CFA84F83D50B8
:102B6000002084F83C0070BDCA684968206801F004
:102B700059FA40212068EFE7226801461046EBE74A
:102B8000704770B50446006801694FF00005C943FD
:102B9000890715D4C168C943890711D4E91E0161A9
:102BA00001202077206880698007204602D0FFF747
:102BB000E7FF04E000F098F8204600F096F825774B
:102BC00020680169C943490717D4C168C943490747
:102BD00013D46FF00401016102202077206880691E
:102BE00010F4407F204602D0FFF7CAFF04E000F057
:102BF0007BF8204600F079F8257720680169C94301
:102C0000090716D4C168C943090712D46FF0080137
:102C10000161042020772068C0698007204602D027
:102C2000FFF7AEFF04E000F05FF8204600F05DF82B
:102C3000257720680169C943C90617D4C168C9430B
:102C4000C90613D46FF010010161082020772068B5
:102C5000C06910F4407F204602D0FFF791FF04E0E6
:102C600000F042F8204600F040F82577206801691E
:102C7000C943C90708D1C168C943C90704D1891E1E
:102C80000161204600F06CF820680169C94309061B
:102C900009D4C168C943090605D46FF080010161F8
:102CA0002046FFF777FE20680169C943490609D429
:102CB000C168C943490605D46FF04001016120464F
:102CC00000F058F820680169C94389060BD4C1682F
:102CD000C943890607D46FF0200101612046BDE891
:102CE0007040FFF758BE70BD7047704710B502685E
:102CF000044631B1042908D0082925D00C2908D16F
:102D000026E0D06840F0020002E0D06840F0040005
:102D1000D0600122206800F059FB0F4920688842EA
:102D200002D00E49884203D1416C41F40041416414
:102D30002068816801F00701062903D0016841F08D
:102D400001010160002010BDD06840F00800DFE7FD
:102D5000D06840F01000DBE70000014000040140B3
:102D600000680349884201D1FEF716BF7047000092
:102D700000100040704770B5040004D094F839008A
:102D8000002510B106E0012070BD84F838502046BF
:102D900000F022F8242084F839002068C16821F46A
:102DA0000051C160204601F011FA2068016921F448
:102DB000904101612068416921F02A014161206848
:102DC000C16841F40051C160E563202084F83900F6
:102DD00084F83A00002070BD10B586B00446142176
:102DE0006846FDF7B3FB14492068884221D1134897
:102DF0000021026842F010020260006800F010003A
:102E000005900E481438026842F001020260006822
:102E100000F0010005904FF4C06000900220CDE961
:102E20000101032003900720049069460448FEF73F
:102E300053FB06B010BD00000010014044380240B2
:102E400000000240FEE700000148FEF72BBF000033
:102E50003C010020074910B5054808600846FEF708
:102E6000D3F9002803D0BDE81040FEF764B910BDC7
:102E700000300240080000200E4810B50C490160E7
:102E8000002141608160C1608162C1620163416370
:102E9000FEF7C3FA08B1FEF74EF901210548FEF727
:102EA000DBF9002803D0BDE81040FEF744B910BD9F
:102EB00000B002407400002000B587B01C216846B5
:102EC000FDF744FB1548144900F1080C016001218D
:102ED00041600021042210238CE80E00402343614E
:102EE0004FF4C073C0E906315302C0E90831D10282
:102EF0008162022007218DE8070003910321CDE9BB
:102F00000410069069460548FFF7ACFC002801D084
:102F1000FEF711F907B000BD400100A0B400002089
:102F20002DE9F04F87B014216846FDF70FFB544898
:102F30000024016841F004010160016801F004010E
:102F40000591016841F020010160016801F0200154
:102F50000591016841F080010160016801F0800184
:102F60000591016841F001010160016801F0010172
:102F70000591016841F002010160016801F0020160
:102F80000591016841F040010160016801F04001D4
:102F90000591016841F010010160016801F0100124
:102FA0000591016841F0080101600068DFF8D490E4
:102FB00000F008000590002216214846FEF776FB37
:102FC000DFF8C4A0002280215046FEF76FFBDFF837
:102FD000BCB04FF44057002239465846FEF766FB16
:102FE0004FF4C048002241462948FEF75FFB1620F7
:102FF00000900125CDE90154694648460394FEF747
:103000006BFA244E48F20700CDE9000669460294A7
:103010005046FEF761FA80200090CDE901546946E0
:1030200050460394FEF758FA2020CDE90006694681
:1030300002944846FEF750FA0420CDE900046946A0
:1030400015480294FEF748FAE802CDE90004694603
:1030500058460294FEF740FA0097CDE901546946BC
:1030600058460394FEF738FACDF80080CDE90154B4
:10307000694607480394FEF72FFA07B0BDE8F08FC2
:10308000303802400008024000000240000C0240BC
:10309000001802400000121000040240144810B54D
:1030A000124901601349416000214FF48042816060
:1030B000C0E9031241618161C1610162FEF760FCF8
:1030C00008B1FEF738F800210948FEF718FC08B1EE
:1030D000FEF731F800210648FEF732FC002803D045
:1030E000BDE81040FEF727B810BD0000005C0040AE
:1030F000E8000020A086010010B58EB0342168469B
:10310000FDF724FA274826490024C0E9001484600A
:103110000921C460C0E90441012181611D21C1610F
:103120000321016240F20D11416240F243118162BC
:1031300040F21711C16240F24711016380F8344038
:1031400080F8354080F83640FEF712FE08B1FDF7F2
:10315000F2FFF020CDE900404FF4A071022202946A
:10316000CDE90312FF22CDE905244FF4C062079296
:10317000072208924FF05042CDE90A018DF8304005
:1031800009928DF831408DF8324000226946054899
:10319000FEF75EFD002801D0FDF7CDFF0EB010BD9B
:1031A000006801403C010020104810B50E49016044
:1031B0004FF48271416000218160C1604FF4007260
:1031C0000161C0E905121822C0E90721416281624C
:1031D0000A21C162FFF769FB002803D0BDE8104057
:1031E000FDF7A9BF10BD000000500140E401002020
:1031F00010B586B0002416480094019402940394FC
:10320000049412490594C0E900148460C460046108
:1032100044618461FFF708FC08B1FDF78CFF4FF4AF
:103220008050009069460A48FFF73FFC08B1FDF75F
:1032300082FF049404A906480594FFF7ADFB00281B
:1032400001D0FDF778FF06B010BD0000000001407E
:103250003C0200200C4810B50A4901604FF4E131EE
:103260004160002181600C22C160C0E904128161CB
:10327000C161FFF780FD002803D0BDE81040FDF7D5
:103280005ABF10BD001001407C0200200D4810B54F
:103290000B4901600C2181600121C16000210222E3
:1032A0000161C0E906210162C1624163FEF7A6FA2D
:1032B000002803D0BDE81040FDF73DBF10BD000061
:1032C00000000440BC020020FEE770470148FEF702
:1032D000FDB90000BC020020704770470548016836
:1032E00041F47001016003494FF0006080390860CB
:1032F0007047000088ED00E00148FFF742BC000085
:1033000080050020F0B50268254C264D264E274F3B
:10331000274B4FF0804CA04209D0604507D0A8420F
:1033200005D0B04203D0B84201D0984204D122F077
:10333000700E4A6842EA0E02A0421BD0604519D0C6
:10334000A84217D0B04215D0B84213D0984211D03D
:10335000184DA8420ED0184DA8420BD0174DA842C8
:1033600008D0174DA84205D0164DA84202D0164DE0
:10337000A84203D122F44075CA682A434D6922F05D
:1033800080022A4302608A68C2620A688262A0429E
:1033900001D0984201D10969016301214161F0BD69
:1033A000000001400004004000080040000C004004
:1033B0000004014000400140004401400048014039
:1033C00000180040001C00400020004010B501F033
:1033D0001F030121046A99408C430462016A9A40E8
:1033E0001143016210BD10B5846842EA032224F43F
:1033F0007F440A432243826010BD000070B504463A
:1034000006990A9E049D0D98012916D0E06840F0A7
:103410004000E060204600F001FBA16B1EB321F4E8
:103420008031A163012D07D1A16841F00601A1609F
:10343000A16841F02001A16070BDA16B21F4803131
:10344000A163E168094A1140E160E16821F440119B
:10345000E160012803D1E06840F48010E06020467C
:1034600000F0DCFADEE741F48031DAE7BFFFBDFFB0
:10347000816821F0010181600020704708B5D0F813
:10348000402422F02E020092D20405D4012909D151
:10349000009941F4805103E021B9009921F4805151
:1034A000C0F84014002008BD002110220261054A26
:1034B000491C914201D9032070470369DB06F7D408
:1034C00000207047400D03000022202343EA8111B1
:1034D00001610549521C8A4201D9032070470369E2
:1034E0009B06F7D400207047400D0300406900F0B0
:1034F0000100704700EB4111D1F800254FF47A73B9
:10350000C2F381426AB1022A0BD0D1F8002542F001
:103510008042C1F80025D0F8100410F47F0F2ED09F
:1035200009E0D1F8002542F08042C1F80025C06AC8
:1035300010F47F0F07D0D1F8000540F00040C1F82B
:10354000000500207047D1F8000520F00040C1F8C8
:103550000005D1F8000540F00040C1F80005D1F8A1
:10356000000520F40040C1F80005012002E0401CE5
:103570009842E6D8D1F80025002AF8DBE1E7D1F837
:10358000000520F00040C1F80005D1F8000540F02A
:103590000040C1F80005D1F8000520F40040C1F852
:1035A0000005012002E0401C9842CAD8D1F800254D
:1035B000002AF8DBC5E7D0F8140480B27047000099
:1035C0002DE9F0410025DDF8188017460446C0F8C3
:1035D000005E806B40F40010A063A06B20F400201C
:1035E000A063A06B20F48020A063E06BC00501D530
:1035F000012B04D0D4F8000420F0040103E0D4F837
:10360000000440F004012046C4F800141021FFF724
:103610005BFF2046FFF748FF0020461E07E000BF83
:1036200004EB4011C1F80865C1F80C55401C8742F5
:10363000F6D801212046FFF721FFC820FDF73AFF09
:10364000A5616661E06BC00506D54FF4007060624D
:103650000C48A0620C4804E0802060620B48A06225
:103660000B48C4F80001B8F1000F03D1A06940F085
:103670001000A061A06907490843A0610020BDE8CF
:10368000F0810000000200010003E0008000600003
:10369000E0004000080020A3D0F8002422F003023C
:1036A000C0F80024D0F8002401F003031A43C0F846
:1036B0000024012902D0022903D006E04BF6803114
:1036C00001E041F27071C0F80414002070474169B4
:1036D000806908407047D21C10B59308002200F59D
:1036E000805002E00468521C10C19A42FAD3084686
:1036F00010BD10B5C26822F0C042C260012902D0DC
:1037000029B1012010BDC16841F0005102E0C1683B
:1037100041F08041C1603220FDF7CCFE002010BD99
:10372000FEE7000030B59FB030216846FCF70EFF81
:10373000142118A8FCF70AFF30210CA8FCF706FF9B
:103740001E480025016841F080510160006800F0CA
:1037500080501D901A48016821F4404141F4804195
:1037600001600068022400F440401D900120009098
:10377000000401908001CDE9064004200890482013
:10378000CDE9090403200B906846FEF7BDFE18A999
:103790000F2081E83100E002CDE91B05022118A8C5
:1037A000FEF7A8FD08200C90322015951090129479
:1037B0000CA8FEF775FC1FB030BD00004038024079
:1037C000007000407CB5002641F28835254CCDE9DB
:1037D0000065334620A20121206800F0A8F8206887
:1037E0003D222149406AFCF77FFE1F4890F83D10BA
:1037F0002068426A82F83D10426A04211164426ADC
:103800001A495164436A0122A3F84820426A0023FE
:103810005165406A102116A2A0F85810CDE9006544
:103820000221606800F083F800231A4619462068D8
:1038300000F032F82068016849688847014610A006
:10384000FCF7ACFD2068016809688847BDE87C404A
:1038500001460FA0FCF7A2BD46656564204D6F745C
:103860006F720000000000203400002000000240C1
:10387000526F746174696F6E204D6F746F720000C7
:103880004465736372697074696F6E2025730000FC
:1038900049442025640000002DE9F04190B0012743
:1038A0000773466A884604461D463D2231466846EF
:1038B000FCF71AFE96F83D008DF83D0000988762EF
:1038C0000098C5620395606A016C680829B30429F1
:1038D00026D00829009926D00864606A0022B0F832
:1038E0004810406CFDF7E2FE0120FDF7E3FD606A41
:1038F000B8F1010FB0F85810406D16D05FF001021A
:10390000FDF7D4FE0120FDF7D5FD606A016C684625
:10391000FFF7ECF910B0BDE8F08100994863DCE7EF
:1039200000998863D9E7C863D7E70022E8E730B594
:10393000DDE90345C0E9011203730562046130BD8E
:103940002DE9F04186B014216846FCF7FFFD2B48B5
:10395000016800294FD14FF00108C0F800802848C5
:103960000024016841F0010101600068022500F0B7
:10397000010005904FF63F00CDE9000502AA03269D
:103980000C2782E8D00069461E48FDF7A5FD02AA73
:10399000694682E8D000CDE900851B48FDF79CFD13
:1039A00048F23310CDE9000502AA694682E8D0004A
:1039B0001648FDF791FD4FF68370CDE9000502AA88
:1039C000694682E8D0001248FDF786FD4CF203708C
:1039D000CDE9000502AA694682E8D0000D48FDF74E
:1039E0007BFD6020CDE9000502AA694682E8D0008F
:1039F0000948FDF771FD06B0BDE8F0811000002018
:103A0000383802400014024000080240001802400A
:103A100000100240000C02400004024001220C4948
:103A200002E0521C8A420BD80369002BF9DA0269C2
:103A300042F001020261012204E0521C8A4201D9D3
:103A4000032070470369DB07F7D1002070470000AF
:103A5000400D03007CB504680546D4F8400401908D
:103A6000D4F8400420F02E0000900198800709D57A
:103A70000198C00702D02846FDF724FE009840F0C8
:103A8000020000900198000724D5009840F008003B
:103A90000090019840071AD5A869022803D0E86869
:103AA00001280CD00FE00198C0F34140022828689B
:103AB00003D00121FFF7F0FD05E00221FAE74EF601
:103AC0006020C4F804042846FDF717FF02E02846EA
:103AD000FDF712FF01988006009802D540F0200003
:103AE0000090C4F840047CBD2DE9F05F07460068F3
:103AF0000E4600EB4114D4F808054FF004094207C4
:103B000001EB86004FF0050B4FF0100807EBC005E6
:103B100008D5C4F80895D4F80C0540F00200C4F8A4
:103B20000C0542E0D4F80805C0050DD54FF48070AF
:103B3000C4F80805072085F85D00D4F80C0540F0AE
:103B40000200C4F80C0517E0D4F80805800601D57A
:103B5000202028E0D4F808054FF0080A00070FD508
:103B6000D4F80C0540F00200C4F80C0585F85DB0EF
:103B7000C4F80885C4F808A53868FFF7BBFC14E052
:103B8000D4F80805400510D5D4F80C0540F0020023
:103B9000C4F80C053868FFF7ADFCC4F8088585F853
:103BA0005DA04FF48060C4F80805D4F808058005CE
:103BB0000ED5D4F80C0540F00200C4F80C053146CF
:103BC00004F5A1643868FFF795FC4FF40070A4E099
:103BD000D4F808054FF00001C0074FF0010242D0B1
:103BE000386930B1A86CD4F81035C3F31203C01A89
:103BF000E86485F85D20A965C4F8082595F83F00BC
:103C000030B1022804D0032811D0012818D023E0B5
:103C1000D4F80C0540F00200C4F80C05314604F558
:103C2000A1643868FFF766FCC4F8008014E0D4F89B
:103C3000000540F00050C4F8000585F85C2007E05E
:103C400085F85C2095F8500080F0010085F8500060
:103C500031463846FDF738FD15F8500F80F0010069
:103C60002870BDE8F09FD4F8080580073ED5D4F849
:103C70000C0520F00200C4F80C0595F85D00022345
:103C800001280AD005280BD006280CD008280AD015
:103C900003281AD007281BD01FE085F85C201CE001
:103CA00085F85CB019E0A86D401CA86503280CD904
:103CB000A96585F85C9000BFD4F8000520F080402D
:103CC00040F00040C4F8000507E085F85C30F3E7F9
:103CD000A86D401CA86585F85C90C4F8083595F877
:103CE0005C2031463846FDF7EFFCBAE7D4F808050A
:103CF000000614D5D4F80C0540F00200C4F80C05F9
:103D0000A86D3146401CA865062085F85D0004F5C5
:103D1000A1643868FFF7EEFB80202060A1E7D4F8AB
:103D20000805C0069DD595F83F00032803D020B1B3
:103D3000022802D011E0A96505E0A965386960B9DB
:103D4000032085F85D00D4F80C0540F00200C4F8AB
:103D50000C0531463868FFF7CDFBC4F8088580E7CD
:103D60002DE9F047026802EB4114D4F808254FF022
:103D70000403520709D5C4F80835D4F80C0540F0FF
:103D80000200C4F80C05BDE8F087D4F8082501EB63
:103D9000810596064FF0000200EBC5054FF0020CBE
:103DA00015D52023C4F8083595F83D30012BEAD10C
:103DB00085F83D2085F85CC0D4F80C2542F002025D
:103DC000C4F80C250068BDE8F047FFF793BBD4F8B2
:103DD000086577064FF0010611D585F85D3085F846
:103DE0003D60AA65D4F80C2542F00202C4F80C2507
:103DF000006804F5A164FFF77DFB402010E0D4F8D3
:103E00000875BF050ED5D4F80C2542F00202C4F89F
:103E10000C25006804F5A164FFF76CFB4FF40070FB
:103E20002060B0E7D4F80875FF070FD0AA65D4F872
:103E30000C2542F00202C4F80C25006804F5A164C8
:103E4000FFF758FB266085F85D609CE7D4F808759D
:103E50004FF005095FEA07784FF008070DD5C4F861
:103E60000875D4F80C2542F00202C4F80C2500684D
:103E7000FFF740FB85F85D9085E7D4F808854FF0A3
:103E8000100A5FEAC86818D5AA65032285F85D2084
:103E900095F83D2022B995F83C200AB985F83D6097
:103EA000D4F80C2542F00202C4F80C25006804F591
:103EB000A164FFF71FFB5046B2E7D4F808855FEA1C
:103EC00008680FD5D4F80C2542F00202C4F80C257E
:103ED000006804F5A164FFF70DFB062085F85D007E
:103EE00080209DE7D4F808855FEA485812D5D4F8B9
:103EF0000C2542F00202C4F80C25006804F5A16408
:103F0000FFF7F8FAC4F800A04FF48060206085F84D
:103F10005D7038E7D4F80875BF0796D5D4F80C75EE
:103F200027F00207C4F80C7595F85D70012F0AD0D0
:103F3000032F17D0042F15D0052F16D0062F17D01A
:103F4000082F15D027E085F85C6095F83F20022AFD
:103F500001D0032A1FD195F8512082F0010285F883
:103F6000512018E085F85CC015E085F85C9012E0FF
:103F7000AE6D761CAE65032E03D9AA6585F85C305C
:103F800001E085F85CC0D4F8002522F0804242F0C0
:103F90000042C4F80025C4F808C595F85C20FDF778
:103FA00093FBF0E62DE9F041024600680646016AFF
:103FB000C1F3434301F00F07C1F30A14022B25D1CB
:103FC000002C23D007EB870102EBC105696C0029A7
:103FD0001CD02246FFF77FFB686C20446864E86CC5
:103FE0002044E86406EB4710D0F81015084A114247
:103FF0000CD0D0F8001521F0804141F00041C0F80C
:10400000001515F8500F80F001002870BDE8F08110
:104010000000F81F826822F070020A4342F0070194
:104020008160704710B5036A046A24F001040462D9
:10403000846924F0F00444EA021423F00A020A43DB
:104040008461026210BD10B5036A23F0100303629D
:104050008369046A23F4704343EA023224F0A00324
:1040600043EA01118261016210BDF0B503688C88DA
:10407000DD68C5F30B452C442504882404EBC214E9
:104080001E5906F470461E5103680F68DE68C6F3B9
:104090000B46761C3E442E431E5104688B89E5680E
:1040A000C5F30A052B441D048C2303EBC213E65809
:1040B00006F47046E65004688F68E668C6F30A06A0
:1040C000761C3E442E43E6509423046803EBC2134F
:1040D000E55825F00705E55005680C69EC5091F8A6
:1040E00031300C7E1F0226069C24056804EBC214A6
:1040F00091F8323055F804C04FF0000C45F804C078
:1041000091F8305046EA03433D431D4303681D5177
:104110009823046803EBC213E55825F0FF05E5502A
:1041200005684C69EC50A023046803EBC213E55802
:1041300040F20776B543E550D1E907452C430568C1
:10414000EC50AC23046803EBC213E55844F803C0F9
:1041500005684C6AEC500B698BB3012B32D0042BF1
:1041600032D0022B30D0032B2ED0072B2CD00123A2
:10417000B024056804EBC2142E5906F0E0262E5137
:10418000D1E90065AD1B0E8D5D435E43ED1C45EA34
:10419000064305682B51B423046803EBC213E558AA
:1041A0006FF30A05E5500468C96AE150006884218C
:1041B00001EBC211425842F001024250F0BDFFE74C
:1041C0000423D5E70323D3E70223D1E72DE9F04108
:1041D000044600680169E26821F44051114301611D
:1041E0002169A068E26908436169114308432168B5
:1041F000CA6849F20C639A430243CA602068416965
:10420000A26921F4407111434161E06919276425D5
:104210003226B0F5004F354A354920684FF0000886
:1042200006D0884201D0904236D1FEF72DF935E014
:10423000884201D0904202D1FEF726F901E0FEF754
:1042400013F961684A18A0FB070148EB0803FCF763
:104250002DF80146B0FBF5F00201B1FBF5F06FF06F
:104260001803584301EB800006EBC000B0FBF5F0EB
:1042700000F0F80002EB4002B1FBF5F0584301EB0F
:10428000800006EBC000B0FBF5F000F007002168ED
:1042900010448860BDE8F081FEF7E6F861688B0F96
:1042A0008A00A0FB0701FCF701F80146B0FBF5F01E
:1042B0006FF01802504301EB800006EB0010B0FBDA
:1042C000F5F000F0F002B1FBF5F002EB0012B1FBEB
:1042D000F5F06FF01803584301EB800006EB001077
:1042E000B0FBF5F000F00F00D1E700000014014032
:1042F000001001400907090E002804DB00F1E0204E
:1043000080F80014704700F00F0000F1E02080F802
:10431000141D70478A68002A01DCFCF729BB521E75
:104320008A604A68C0B2531C4B6010707047FFF738
:1043300049FAFDF739FCFFF7F5F9FEF7F1FDFEF755
:1043400089FDFEF799FDFEF7B7FDFEF7A7FEFEF724
:10435000D3FEFEF729FFFEF74BFFFEF77BFFFEF7CC
:1043600095FFFEE74FF04070E1EE100A7047000045
:104370000000000000000102030406070809000015
:104380000000010203043A7474003A7474003A7431
:1043900074000000B4430008000000203400000056
:1043A000E8010008E843000834000020EC0C00009D
:1043B00004020008000000000000000000000000EF
:1043C00000000000000000000000000001000000EC
:1043D00010000000000000000024F40000000000B5
:0843E0000000000000000000D5
:04000005080001AD41
:00000001FF
